{
	"data": {
		"bytecode": {
			"linkReferences": {},
			"object": "60806040526004600055600360015534801561001a57600080fd5b5061012e8061002a6000396000f3fe6080604052348015600f57600080fd5b506004361060285760003560e01c806312ae639714602d575b600080fd5b60336047565b604051603e91906083565b60405180910390f35b6000806002905060005481605a919060cb565b816063919060cb565b90508091505090565b6000819050919050565b607d81606c565b82525050565b6000602082019050609660008301846076565b92915050565b7f4e487b7100000000000000000000000000000000000000000000000000000000600052601160045260246000fd5b600060d482606c565b915060dd83606c565b925082820190508082111560f25760f1609c565b5b9291505056fea2646970667358221220de00621fb18108176f441405b6ae223a8a563038076e79c0b5b2c78c2fd7797264736f6c63430008120033",
			"opcodes": "PUSH1 0x80 PUSH1 0x40 MSTORE PUSH1 0x4 PUSH1 0x0 SSTORE PUSH1 0x3 PUSH1 0x1 SSTORE CALLVALUE DUP1 ISZERO PUSH2 0x1A JUMPI PUSH1 0x0 DUP1 REVERT JUMPDEST POP PUSH2 0x12E DUP1 PUSH2 0x2A PUSH1 0x0 CODECOPY PUSH1 0x0 RETURN INVALID PUSH1 0x80 PUSH1 0x40 MSTORE CALLVALUE DUP1 ISZERO PUSH1 0xF JUMPI PUSH1 0x0 DUP1 REVERT JUMPDEST POP PUSH1 0x4 CALLDATASIZE LT PUSH1 0x28 JUMPI PUSH1 0x0 CALLDATALOAD PUSH1 0xE0 SHR DUP1 PUSH4 0x12AE6397 EQ PUSH1 0x2D JUMPI JUMPDEST PUSH1 0x0 DUP1 REVERT JUMPDEST PUSH1 0x33 PUSH1 0x47 JUMP JUMPDEST PUSH1 0x40 MLOAD PUSH1 0x3E SWAP2 SWAP1 PUSH1 0x83 JUMP JUMPDEST PUSH1 0x40 MLOAD DUP1 SWAP2 SUB SWAP1 RETURN JUMPDEST PUSH1 0x0 DUP1 PUSH1 0x2 SWAP1 POP PUSH1 0x0 SLOAD DUP2 PUSH1 0x5A SWAP2 SWAP1 PUSH1 0xCB JUMP JUMPDEST DUP2 PUSH1 0x63 SWAP2 SWAP1 PUSH1 0xCB JUMP JUMPDEST SWAP1 POP DUP1 SWAP2 POP POP SWAP1 JUMP JUMPDEST PUSH1 0x0 DUP2 SWAP1 POP SWAP2 SWAP1 POP JUMP JUMPDEST PUSH1 0x7D DUP2 PUSH1 0x6C JUMP JUMPDEST DUP3 MSTORE POP POP JUMP JUMPDEST PUSH1 0x0 PUSH1 0x20 DUP3 ADD SWAP1 POP PUSH1 0x96 PUSH1 0x0 DUP4 ADD DUP5 PUSH1 0x76 JUMP JUMPDEST SWAP3 SWAP2 POP POP JUMP JUMPDEST PUSH32 0x4E487B7100000000000000000000000000000000000000000000000000000000 PUSH1 0x0 MSTORE PUSH1 0x11 PUSH1 0x4 MSTORE PUSH1 0x24 PUSH1 0x0 REVERT JUMPDEST PUSH1 0x0 PUSH1 0xD4 DUP3 PUSH1 0x6C JUMP JUMPDEST SWAP2 POP PUSH1 0xDD DUP4 PUSH1 0x6C JUMP JUMPDEST SWAP3 POP DUP3 DUP3 ADD SWAP1 POP DUP1 DUP3 GT ISZERO PUSH1 0xF2 JUMPI PUSH1 0xF1 PUSH1 0x9C JUMP JUMPDEST JUMPDEST SWAP3 SWAP2 POP POP JUMP INVALID LOG2 PUSH5 0x6970667358 0x22 SLT KECCAK256 0xDE STOP PUSH3 0x1FB181 ADDMOD OR PUSH16 0x441405B6AE223A8A563038076E79C0B5 0xB2 0xC7 DUP13 0x2F 0xD7 PUSH26 0x7264736F6C634300081200330000000000000000000000000000 "
		},
		"gasEstimates": {
			"creation": {
				"codeDepositCost": "60400",
				"executionCost": "44323",
				"totalCost": "104723"
			},
			"external": {
				"assign()": "infinite"
			}
		},
		"methodIdentifiers": {
			"assign()": "12ae6397"
		}
	},
	"abi": [
		{
			"inputs": [],
			"name": "assign",
			"outputs": [
				{
					"internalType": "uint256",
					"name": "",
					"type": "uint256"
				}
			],
			"stateMutability": "view",
			"type": "function"
		}
	]
}