{
	"data": {
		"bytecode": {
			"linkReferences": {},
			"object": "60806040526011600055602060015534801561001a57600080fd5b506101d38061002a6000396000f3fe608060405234801561001057600080fd5b506004361061002b5760003560e01c8063d7dfa0dd14610030575b600080fd5b61003861004e565b60405161004591906100b1565b60405180910390f35b6000806000905060015460005410801561006c575060015460005414155b156100915760015460015460005461008491906100fb565b61008e919061016c565b90505b8091505090565b6000819050919050565b6100ab81610098565b82525050565b60006020820190506100c660008301846100a2565b92915050565b7f4e487b7100000000000000000000000000000000000000000000000000000000600052601160045260246000fd5b600061010682610098565b915061011183610098565b925082820261011f81610098565b91508282048414831517610136576101356100cc565b5b5092915050565b7f4e487b7100000000000000000000000000000000000000000000000000000000600052601260045260246000fd5b600061017782610098565b915061018283610098565b9250826101925761019161013d565b5b82820490509291505056fea2646970667358221220afa7da8fb9708ded1d8b2fb7ac2620e31059f183fa190a076a1a431a7708422364736f6c63430008120033",
			"opcodes": "PUSH1 0x80 PUSH1 0x40 MSTORE PUSH1 0x11 PUSH1 0x0 SSTORE PUSH1 0x20 PUSH1 0x1 SSTORE CALLVALUE DUP1 ISZERO PUSH2 0x1A JUMPI PUSH1 0x0 DUP1 REVERT JUMPDEST POP PUSH2 0x1D3 DUP1 PUSH2 0x2A PUSH1 0x0 CODECOPY PUSH1 0x0 RETURN INVALID PUSH1 0x80 PUSH1 0x40 MSTORE CALLVALUE DUP1 ISZERO PUSH2 0x10 JUMPI PUSH1 0x0 DUP1 REVERT JUMPDEST POP PUSH1 0x4 CALLDATASIZE LT PUSH2 0x2B JUMPI PUSH1 0x0 CALLDATALOAD PUSH1 0xE0 SHR DUP1 PUSH4 0xD7DFA0DD EQ PUSH2 0x30 JUMPI JUMPDEST PUSH1 0x0 DUP1 REVERT JUMPDEST PUSH2 0x38 PUSH2 0x4E JUMP JUMPDEST PUSH1 0x40 MLOAD PUSH2 0x45 SWAP2 SWAP1 PUSH2 0xB1 JUMP JUMPDEST PUSH1 0x40 MLOAD DUP1 SWAP2 SUB SWAP1 RETURN JUMPDEST PUSH1 0x0 DUP1 PUSH1 0x0 SWAP1 POP PUSH1 0x1 SLOAD PUSH1 0x0 SLOAD LT DUP1 ISZERO PUSH2 0x6C JUMPI POP PUSH1 0x1 SLOAD PUSH1 0x0 SLOAD EQ ISZERO JUMPDEST ISZERO PUSH2 0x91 JUMPI PUSH1 0x1 SLOAD PUSH1 0x1 SLOAD PUSH1 0x0 SLOAD PUSH2 0x84 SWAP2 SWAP1 PUSH2 0xFB JUMP JUMPDEST PUSH2 0x8E SWAP2 SWAP1 PUSH2 0x16C JUMP JUMPDEST SWAP1 POP JUMPDEST DUP1 SWAP2 POP POP SWAP1 JUMP JUMPDEST PUSH1 0x0 DUP2 SWAP1 POP SWAP2 SWAP1 POP JUMP JUMPDEST PUSH2 0xAB DUP2 PUSH2 0x98 JUMP JUMPDEST DUP3 MSTORE POP POP JUMP JUMPDEST PUSH1 0x0 PUSH1 0x20 DUP3 ADD SWAP1 POP PUSH2 0xC6 PUSH1 0x0 DUP4 ADD DUP5 PUSH2 0xA2 JUMP JUMPDEST SWAP3 SWAP2 POP POP JUMP JUMPDEST PUSH32 0x4E487B7100000000000000000000000000000000000000000000000000000000 PUSH1 0x0 MSTORE PUSH1 0x11 PUSH1 0x4 MSTORE PUSH1 0x24 PUSH1 0x0 REVERT JUMPDEST PUSH1 0x0 PUSH2 0x106 DUP3 PUSH2 0x98 JUMP JUMPDEST SWAP2 POP PUSH2 0x111 DUP4 PUSH2 0x98 JUMP JUMPDEST SWAP3 POP DUP3 DUP3 MUL PUSH2 0x11F DUP2 PUSH2 0x98 JUMP JUMPDEST SWAP2 POP DUP3 DUP3 DIV DUP5 EQ DUP4 ISZERO OR PUSH2 0x136 JUMPI PUSH2 0x135 PUSH2 0xCC JUMP JUMPDEST JUMPDEST POP SWAP3 SWAP2 POP POP JUMP JUMPDEST PUSH32 0x4E487B7100000000000000000000000000000000000000000000000000000000 PUSH1 0x0 MSTORE PUSH1 0x12 PUSH1 0x4 MSTORE PUSH1 0x24 PUSH1 0x0 REVERT JUMPDEST PUSH1 0x0 PUSH2 0x177 DUP3 PUSH2 0x98 JUMP JUMPDEST SWAP2 POP PUSH2 0x182 DUP4 PUSH2 0x98 JUMP JUMPDEST SWAP3 POP DUP3 PUSH2 0x192 JUMPI PUSH2 0x191 PUSH2 0x13D JUMP JUMPDEST JUMPDEST DUP3 DUP3 DIV SWAP1 POP SWAP3 SWAP2 POP POP JUMP INVALID LOG2 PUSH5 0x6970667358 0x22 SLT KECCAK256 0xAF 0xA7 0xDA DUP16 0xB9 PUSH17 0x8DED1D8B2FB7AC2620E31059F183FA190A SMOD PUSH11 0x1A431A7708422364736F6C PUSH4 0x43000812 STOP CALLER "
		},
		"gasEstimates": {
			"creation": {
				"codeDepositCost": "93400",
				"executionCost": "44353",
				"totalCost": "137753"
			},
			"external": {
				"logic()": "infinite"
			}
		},
		"methodIdentifiers": {
			"logic()": "d7dfa0dd"
		}
	},
	"abi": [
		{
			"inputs": [],
			"name": "logic",
			"outputs": [
				{
					"internalType": "uint256",
					"name": "",
					"type": "uint256"
				}
			],
			"stateMutability": "view",
			"type": "function"
		}
	]
}